:100000000C942A000C9487000C94EF000C943C0094
:100010000C943C000C943C000C943C000C943C0070
:100020000C943C000C943C000C943C000C943C0060
:100030000C943C000C943C000C943C000C943C0050
:100040000C943C000C943C000C945E000C943C001E
:100050000C943C0011241FBECFE5D4E0DEBFCDBF21
:1000600010E0A0E6B0E001C01D92A336B107E1F7B1
:100070000E94D3000C9424010C940000829B08C0C1
:1000800081E080936000B29907C0109262000895E9
:1000900010926000B29BF9CF81E0809362000895D6
:1000A000979A959A949896980E943E0008959798EA
:1000B0009598949896980E943E0008951F920F92EA
:1000C0000FB60F9211242F933F934F935F936F932B
:1000D0007F938F939F93AF93BF93EF93FF9381E0B1
:1000E00080936200109260000E945700FF91EF9190
:1000F000BF91AF919F918F917F916F915F914F9140
:100100003F912F910F900FBE0F901F9018951F9247
:100110000F920FB60F9211242F933F934F935F933B
:100120006F937F938F939F93AF93BF93EF93FF93BF
:1001300081E080936000109262000E945700FF915E
:10014000EF91BF91AF919F918F917F916F915F914F
:100150004F913F912F910F900FBE0F901F901895C8
:10016000949A969A979895980E943E0008958BEFDE
:1001700087BB80EF81BB0E943E00839910C0109224
:10018000610078948BB7806E8BBF84B7806484BF26
:1001900085B7836085BF85B7846085BF089581E09A
:1001A00080936100EECF0E94B70004C0809161008F
:1001B000882371F0809161008130C1F780916200E5
:1001C0008823A1F70E94500080916100882391F755
:1001D00080916000882371F70E94B000EBCF1F92DE
:1001E0000F920FB60F9211242F933F934F935F936B
:1001F0006F937F938F939F93AF93BF93EF93FF93EF
:10020000839915C0109261000E943E00FF91EF910A
:10021000BF91AF919F918F917F916F915F914F911E
:100220003F912F910F900FBE0F901F90189581E076
:1002300080936100E9CF839903C010926100089513
:0C02400081E0809361000895F894FFCFE6
:00000001FF
